:1000000006C120C11FC119C21DC11CC11BC11AC11B
:1000100019C118C117C116C115C114C113C112C12C
:1000200011C110C1E8C10EC10DC10CC10BC10AC183
:1000300009C108C12B435245473A203100434F4D77
:100040004D414E44204E4F20524553504F4E534544
:10005000210D0A002B43414D504F53543A31002B90
:1000600043414D504F53543A30002B43414D504F74
:1000700053543A0041542B43414D504F53543D2269
:10008000736D6172742D6465766963652E69722F74
:1000900069632F75702E7068703F6E3D302E6A70E8
:1000A00067222C38300D0A0043414D4341503A003D
:1000B00041542B43414D4341500D0A005555553392
:1000C0000055555532005555553100486F73743AF7
:1000D00020736D6172742D6465766963652E697233
:1000E0000D0A0D0A0020485454502F312E310D0AAC
:1000F00000474554202F69632F6D68736E2E70681A
:10010000703F693D0041542B43495053454E440DC7
:100110000A0041542B434950434C4F53450D0A00AC
:1001200041542B43495053544152543D225443505F
:10013000222C22736D6172742D6465766963652E5D
:100140006972222C38300D0A0041542B5253543D11
:10015000310D0A00434F4E4E454354200041542B6D
:1001600043494653520D0A0041542B4349494352D7
:100170000D0A0041542B435354543D226D746E6953
:1001800072616E63656C6C222C22222C22220D0A75
:100190000041542B434744434F4E543D312C224998
:1001A00050222C226D746E6972616E63656C6C22D4
:1001B0000D0A004552524F52000D0A4F4B0D0A00D6
:1001C0000D0A0041542B43414D53544152543D318B
:1001D0000D0A0041542B43414D4346473D302C31DD
:1001E0000D0A0041542B434E4D493D302C302C30EC
:1001F0002C302C300D0A0041542B435245473F0D03
:100200000A00415445300D0A0041540D0A001124E2
:100210001FBECFEFD2E0DEBFCDBF11E0A0E0B1E066
:10022000E6E3F8E002C005900D92A230B107D9F7DD
:1002300022E0A2E0B1E001C01D92A530B207E1F7D3
:1002400009D1F7C2DDCE209A2A9A579A81E080938D
:10025000680094E090936B008BBB83E080938100F7
:1002600010928500109284001092870010928600F0
:10027000109289001092880010928B0010928A00D0
:1002800088E08093C10086E08093C2001092C50090
:1002900087E18093C400E0E6F0E089E3808389E2AF
:1002A0008083789408959091C00095FFFCCF80934F
:1002B000C6000895CF93DF93EC018991882311F054
:1002C000F2DFFBCFDF91CF910895CF93DF93EC0165
:1002D000CE01FE012491222329F02196FC01849174
:1002E000E2DFF6CFDF91CF9108951092040180E014
:1002F00090E0FC01EB5FFE4F108201968F3F91056D
:10030000C1F70895399A89E491E0DFDF2FEF8FE19B
:1003100091E0215080409040E1F700C0000089E466
:1003200091E0D3DF2FEF8FE191E0215080409040AA
:10033000E1F700C000003998E0910201F09103015B
:100340000994DF92EF92FF920F931F93CF93DF9365
:10035000EC018B01D42EC9DF8091C10080698093AC
:10036000C100F12CEE24E394FD1478F4A895B09B21
:1003700004C0CE01AADFB09AF394B80185E091E001
:1003800033D2892B89F3E12CEFCF9091C1009F7676
:100390009093C1008E2DDF91CF911F910F91FF900F
:1003A000EF90DF900895CF93A0DF82E191E08DDFA1
:1003B0008091C10080698093C100C0E069EB71E069
:1003C00085E091E011D2892B79F463EB71E085E04F
:1003D00091E00AD2892B41F4CA3031F0A895B09B44
:1003E000F4CFB09ACF5FEACF8091C1008F7680932F
:1003F000C100CF9108951F920F920FB60F92112452
:100400008F939F93EF93FF939091C6008091C000CC
:100410008C7151F4E091040181E08E0F809304010E
:10042000F0E0EB5FFE4F9083FF91EF919F918F91F2
:100430000F900FBE0F901F9018951F920F920FB63E
:100440000F9211241A9B109200010F900FBE0F9073
:100450001F9018951F93CF93DF93F5DE4EE169EB64
:1004600071E089E092E06DDF81114CDF45E069EBDE
:1004700071E082E092E065DF811144DF4EE164E3E8
:1004800070E087EF91E05DDF882329F0E0910201C1
:10049000F0910301099545E069EB71E083EE91E08D
:1004A00050DF81112FDF45E069EB71E083ED91E0D2
:1004B00048DF882329F0E0910201F09103010995BA
:1004C0004AE060EC71E083EC91E03BDF882329F0A7
:1004D000E0910201F091030109958FEF93E20197FA
:1004E000F1F700C0000045E069EB71E081E991E0BF
:1004F00028DF882329F0E0910201F091030109959A
:1005000045E069EB71E083E791E01BDF882329F088
:10051000E0910201F091030109954CE360EC71E078
:1005200088E691E00EDF882329F0E0910201F09146
:10053000030109959FEF2FE181E091502040804019
:10054000E1F700C000008DE591E0BFDECEDE8091D6
:10055000C10080698093C100C0E06EE270E085E078
:1005600091E05CD1009749F08091C1008F76809333
:10057000C100CA3051F4C6DE08C0CA30A9F3A8953C
:10058000B09BF0CFB09ACF5FE8CF8FEF93E20197A7
:10059000F1F700C00000D1E011E0DD2309F47AC0DA
:1005A00080EB90E092DEA1DE8091C10080698093B3
:1005B000C10068EA70E085E091E016D1009769F02B
:1005C0008091C1008F768093C10063EB71E085E07C
:1005D00091E00AD1892B59F408C0C53088F7A89555
:1005E000B09BECCFB09ACF5FE4CFC53008F08ADE85
:1005F0009FEF2FE181E0915020408040E1F700C063
:100600000000D1DE84E790E060DE6FDE8091C10003
:1006100080698093C100C0E06DE370E085E091E007
:10062000E3D0892BB1F463EB71E085E091E0DCD09D
:10063000892B79F46AE670E085E091E0D5D0892BCA
:1006400041F4CC3331F0A895B09BEDCFB09ACF5F99
:10065000E3CF9FEF2FE181E0915020408040E1F710
:1006600000C000008091C1008F768093C1006FE5CB
:1006700070E085E091E0B8D0892B11F4CC3309F417
:1006800041DE64E570E085E091E0AED0D1E0892BF9
:1006900009F0D0E088DE29DE80E291E016DE80916C
:1006A000C10080698093C100C0E069EB71E085E022
:1006B00091E09AD0892B09F091C063EB71E085E05D
:1006C00091E092D0892B41F4CA3031F0A895B09BCB
:1006D000F4CFB09ACF5FE9CF8091C1008F7680933D
:1006E000C100CA3011F40EDE58CFFFDD8091C10089
:1006F00080698093C10085E091E0E7DDC0E06EE3B2
:1007000070E085E091E08AD0892B09F458C081EF30
:1007100090E0DBDD80910001882319F083E3C3DDE5
:1007200005C081E3C0DD10930001D1E085EE90E0CB
:10073000CCDD8BEC90E0C9DD8AE1B5DD80EC91E0A9
:10074000C4DDD3DD8091C10080698093C100C0E029
:1007500066EC70E085E091E047D0892B99F05F98D6
:100760008FEF93EB0197F1F700C00000289A20C0AB
:100770006CEB70E085E091E037D0892BC1F4A8954F
:10078000B09910C061EC70E085E091E02DD0892B2C
:1007900079F328988FEF93EB0197F1F700C00000F1
:1007A0005F9A06C0B09ACF5FCC3311F0D1CFD1E0C1
:1007B0008091C1008F768093C100CC3340F0A89522
:1007C000B09B02C0B09ACF5FCA3008F498CF809136
:1007D000C1008F768093C100E6DDDFCE80E090E03F
:1007E000DF91CF911F910895FB0155915523A9F0F9
:1007F000BF01DC014D9145174111E1F759F4CD01DD
:100800000590002049F04D9140154111C9F3FB01BD
:100810004111EFCF81E090E001970895FC018191B3
:10082000861721F08823D9F7992708953197CF01AA
:060830000895F894FFCFCB
:020836000100BF
:00000001FF
